{
  "contractName": "SecureSwap",
  "abi": [
    {
      "anonymous": false,
      "inputs": [
        {
          "indexed": false,
          "internalType": "uint256",
          "name": "id",
          "type": "uint256"
        },
        {
          "indexed": false,
          "internalType": "address",
          "name": "seller",
          "type": "address"
        },
        {
          "indexed": false,
          "internalType": "uint256",
          "name": "price",
          "type": "uint256"
        }
      ],
      "name": "ProductListed",
      "type": "event"
    },
    {
      "anonymous": false,
      "inputs": [
        {
          "indexed": false,
          "internalType": "uint256",
          "name": "id",
          "type": "uint256"
        },
        {
          "indexed": false,
          "internalType": "address",
          "name": "buyer",
          "type": "address"
        },
        {
          "indexed": false,
          "internalType": "uint256",
          "name": "price",
          "type": "uint256"
        }
      ],
      "name": "ProductPurchased",
      "type": "event"
    },
    {
      "anonymous": false,
      "inputs": [
        {
          "indexed": false,
          "internalType": "uint256",
          "name": "productId",
          "type": "uint256"
        },
        {
          "indexed": false,
          "internalType": "address",
          "name": "buyer",
          "type": "address"
        },
        {
          "indexed": false,
          "internalType": "address",
          "name": "seller",
          "type": "address"
        },
        {
          "indexed": false,
          "internalType": "uint256",
          "name": "price",
          "type": "uint256"
        }
      ],
      "name": "TransactionAgreed",
      "type": "event"
    },
    {
      "anonymous": false,
      "inputs": [
        {
          "indexed": false,
          "internalType": "uint256",
          "name": "id",
          "type": "uint256"
        },
        {
          "indexed": false,
          "internalType": "address",
          "name": "buyer",
          "type": "address"
        },
        {
          "indexed": false,
          "internalType": "address",
          "name": "seller",
          "type": "address"
        },
        {
          "indexed": false,
          "internalType": "uint256",
          "name": "price",
          "type": "uint256"
        }
      ],
      "name": "TransactionApproved",
      "type": "event"
    },
    {
      "anonymous": false,
      "inputs": [
        {
          "indexed": false,
          "internalType": "uint256",
          "name": "id",
          "type": "uint256"
        },
        {
          "indexed": false,
          "internalType": "string",
          "name": "reason",
          "type": "string"
        }
      ],
      "name": "TransactionDisputed",
      "type": "event"
    },
    {
      "inputs": [
        {
          "internalType": "address",
          "name": "",
          "type": "address"
        }
      ],
      "name": "balances",
      "outputs": [
        {
          "internalType": "uint256",
          "name": "",
          "type": "uint256"
        }
      ],
      "stateMutability": "view",
      "type": "function"
    },
    {
      "inputs": [],
      "name": "productCount",
      "outputs": [
        {
          "internalType": "uint256",
          "name": "",
          "type": "uint256"
        }
      ],
      "stateMutability": "view",
      "type": "function"
    },
    {
      "inputs": [
        {
          "internalType": "uint256",
          "name": "",
          "type": "uint256"
        }
      ],
      "name": "products",
      "outputs": [
        {
          "internalType": "uint256",
          "name": "id",
          "type": "uint256"
        },
        {
          "internalType": "address payable",
          "name": "seller",
          "type": "address"
        },
        {
          "internalType": "string",
          "name": "description",
          "type": "string"
        },
        {
          "internalType": "uint256",
          "name": "price",
          "type": "uint256"
        },
        {
          "internalType": "uint256",
          "name": "sellerDeposit",
          "type": "uint256"
        },
        {
          "internalType": "bool",
          "name": "isSold",
          "type": "bool"
        }
      ],
      "stateMutability": "view",
      "type": "function"
    },
    {
      "inputs": [
        {
          "internalType": "address",
          "name": "",
          "type": "address"
        }
      ],
      "name": "stakedBalances",
      "outputs": [
        {
          "internalType": "uint256",
          "name": "",
          "type": "uint256"
        }
      ],
      "stateMutability": "view",
      "type": "function"
    },
    {
      "inputs": [
        {
          "internalType": "string",
          "name": "_description",
          "type": "string"
        },
        {
          "internalType": "uint256",
          "name": "_price",
          "type": "uint256"
        },
        {
          "internalType": "uint256",
          "name": "_sellerDeposit",
          "type": "uint256"
        }
      ],
      "name": "listProduct",
      "outputs": [],
      "stateMutability": "nonpayable",
      "type": "function"
    },
    {
      "inputs": [
        {
          "internalType": "uint256",
          "name": "_productId",
          "type": "uint256"
        }
      ],
      "name": "agreeToTransaction",
      "outputs": [],
      "stateMutability": "payable",
      "type": "function"
    },
    {
      "inputs": [],
      "name": "withdrawStake",
      "outputs": [],
      "stateMutability": "nonpayable",
      "type": "function"
    },
    {
      "inputs": [
        {
          "internalType": "uint256",
          "name": "_productId",
          "type": "uint256"
        }
      ],
      "name": "purchaseProduct",
      "outputs": [],
      "stateMutability": "payable",
      "type": "function"
    },
    {
      "inputs": [
        {
          "internalType": "uint256",
          "name": "_productId",
          "type": "uint256"
        }
      ],
      "name": "approveTransaction",
      "outputs": [],
      "stateMutability": "nonpayable",
      "type": "function"
    },
    {
      "inputs": [
        {
          "internalType": "uint256",
          "name": "_productId",
          "type": "uint256"
        },
        {
          "internalType": "string",
          "name": "_reason",
          "type": "string"
        }
      ],
      "name": "disputeTransaction",
      "outputs": [],
      "stateMutability": "nonpayable",
      "type": "function"
    }
  ],
  "bytecode": "0x60806040525f8055348015610012575f80fd5b50611a9d806100205f395ff3fe608060405260043610610090575f3560e01c80635229270811610058578063522927081461016c5780637acc0b2014610194578063bed9d861146101d5578063e0f6ef87146101eb578063e58d5bdd1461021557610090565b80631460fa8714610094578063242232d1146100d057806327e235e3146100f85780632b2920091461013457806338e76a0314610150575b5f80fd5b34801561009f575f80fd5b506100ba60048036038101906100b59190610e8a565b61023d565b6040516100c79190610ecd565b60405180910390f35b3480156100db575f80fd5b506100f660048036038101906100f19190610f10565b610252565b005b348015610103575f80fd5b5061011e60048036038101906101199190610e8a565b61045a565b60405161012b9190610ecd565b60405180910390f35b61014e60048036038101906101499190610f10565b61046f565b005b61016a60048036038101906101659190610f10565b61073f565b005b348015610177575f80fd5b50610192600480360381019061018d9190611077565b6108c4565b005b34801561019f575f80fd5b506101ba60048036038101906101b59190610f10565b610a4f565b6040516101cc96959493929190611197565b60405180910390f35b3480156101e0575f80fd5b506101e9610b38565b005b3480156101f6575f80fd5b506101ff610c44565b60405161020c9190610ecd565b60405180910390f35b348015610220575f80fd5b5061023b600480360381019061023691906111fd565b610c49565b005b6003602052805f5260405f205f915090505481565b5f60015f8381526020019081526020015f209050806003015460025f836001015f9054906101000a900473ffffffffffffffffffffffffffffffffffffffff1673ffffffffffffffffffffffffffffffffffffffff1673ffffffffffffffffffffffffffffffffffffffff1681526020019081526020015f2054101561030d576040517f08c379a0000000000000000000000000000000000000000000000000000000008152600401610304906112a1565b60405180910390fd5b806001015f9054906101000a900473ffffffffffffffffffffffffffffffffffffffff1673ffffffffffffffffffffffffffffffffffffffff166108fc826003015490811502906040515f60405180830381858888f19350505050158015610377573d5f803e3d5ffd5b50806003015460025f836001015f9054906101000a900473ffffffffffffffffffffffffffffffffffffffff1673ffffffffffffffffffffffffffffffffffffffff1673ffffffffffffffffffffffffffffffffffffffff1681526020019081526020015f205f8282546103eb91906112ec565b925050819055507fcd1a10b04bfe0c7b1703208d1e348166e0bf0f6165245ff0c08d53baa4cefa9c8233836001015f9054906101000a900473ffffffffffffffffffffffffffffffffffffffff16846003015460405161044e9493929190611389565b60405180910390a15050565b6002602052805f5260405f205f915090505481565b5f60015f8381526020019081526020015f2090505f73ffffffffffffffffffffffffffffffffffffffff16816001015f9054906101000a900473ffffffffffffffffffffffffffffffffffffffff1673ffffffffffffffffffffffffffffffffffffffff1603610514576040517f08c379a000000000000000000000000000000000000000000000000000000000815260040161050b90611416565b60405180910390fd5b5f1515816005015f9054906101000a900460ff1615151461056a576040517f08c379a00000000000000000000000000000000000000000000000000000000081526004016105619061147e565b60405180910390fd5b806001015f9054906101000a900473ffffffffffffffffffffffffffffffffffffffff1673ffffffffffffffffffffffffffffffffffffffff163373ffffffffffffffffffffffffffffffffffffffff16036105fb576040517f08c379a00000000000000000000000000000000000000000000000000000000081526004016105f2906114e6565b60405180910390fd5b80600301543414610641576040517f08c379a00000000000000000000000000000000000000000000000000000000081526004016106389061154e565b60405180910390fd5b806004015460035f836001015f9054906101000a900473ffffffffffffffffffffffffffffffffffffffff1673ffffffffffffffffffffffffffffffffffffffff1673ffffffffffffffffffffffffffffffffffffffff1681526020019081526020015f205f8282546106b4919061156c565b925050819055506001816005015f6101000a81548160ff0219169083151502179055507f4bf00ee925332041f087b96985ea1864cec633aa7b0b4ee8bd5f530ed41b7f8a8233836001015f9054906101000a900473ffffffffffffffffffffffffffffffffffffffff1684600301546040516107339493929190611389565b60405180910390a15050565b5f60015f8381526020019081526020015f20905080600301543414610799576040517f08c379a00000000000000000000000000000000000000000000000000000000081526004016107909061154e565b60405180910390fd5b5f1515816005015f9054906101000a900460ff161515146107ef576040517f08c379a00000000000000000000000000000000000000000000000000000000081526004016107e69061147e565b60405180910390fd5b6001816005015f6101000a81548160ff0219169083151502179055503460025f836001015f9054906101000a900473ffffffffffffffffffffffffffffffffffffffff1673ffffffffffffffffffffffffffffffffffffffff1673ffffffffffffffffffffffffffffffffffffffff1681526020019081526020015f205f82825461087a919061156c565b925050819055507fa530f889d7f1bd9a73028e48944ca013ab2c6624a31e3fa26f923f4bb719abd5823383600301546040516108b89392919061159f565b60405180910390a15050565b818111610906576040517f08c379a00000000000000000000000000000000000000000000000000000000081526004016108fd90611644565b60405180910390fd5b5f8081548092919061091790611662565b91905055506040518060c001604052805f5481526020013373ffffffffffffffffffffffffffffffffffffffff1681526020018481526020018381526020018281526020015f151581525060015f805481526020019081526020015f205f820151815f01556020820151816001015f6101000a81548173ffffffffffffffffffffffffffffffffffffffff021916908373ffffffffffffffffffffffffffffffffffffffff16021790555060408201518160020190816109d7919061189a565b50606082015181600301556080820151816004015560a0820151816005015f6101000a81548160ff0219169083151502179055509050507faae25b31116c34c03f0dc58472ff47d3ea0e38a572ec53c9e66319b994717ddb5f543384604051610a429392919061159f565b60405180910390a1505050565b6001602052805f5260405f205f91509050805f015490806001015f9054906101000a900473ffffffffffffffffffffffffffffffffffffffff1690806002018054610a99906116d6565b80601f0160208091040260200160405190810160405280929190818152602001828054610ac5906116d6565b8015610b105780601f10610ae757610100808354040283529160200191610b10565b820191905f5260205f20905b815481529060010190602001808311610af357829003601f168201915b505050505090806003015490806004015490806005015f9054906101000a900460ff16905086565b5f60035f3373ffffffffffffffffffffffffffffffffffffffff1673ffffffffffffffffffffffffffffffffffffffff1681526020019081526020015f205490505f8111610bbb576040517f08c379a0000000000000000000000000000000000000000000000000000000008152600401610bb2906119b3565b60405180910390fd5b5f60035f3373ffffffffffffffffffffffffffffffffffffffff1673ffffffffffffffffffffffffffffffffffffffff1681526020019081526020015f20819055503373ffffffffffffffffffffffffffffffffffffffff166108fc8290811502906040515f60405180830381858888f19350505050158015610c40573d5f803e3d5ffd5b5050565b5f5481565b5f60015f8481526020019081526020015f209050806003015460025f836001015f9054906101000a900473ffffffffffffffffffffffffffffffffffffffff1673ffffffffffffffffffffffffffffffffffffffff1673ffffffffffffffffffffffffffffffffffffffff1681526020019081526020015f20541015610d04576040517f08c379a0000000000000000000000000000000000000000000000000000000008152600401610cfb90611a1b565b60405180910390fd5b5f816005015f6101000a81548160ff0219169083151502179055503373ffffffffffffffffffffffffffffffffffffffff166108fc826003015490811502906040515f60405180830381858888f19350505050158015610d66573d5f803e3d5ffd5b50806003015460025f836001015f9054906101000a900473ffffffffffffffffffffffffffffffffffffffff1673ffffffffffffffffffffffffffffffffffffffff1673ffffffffffffffffffffffffffffffffffffffff1681526020019081526020015f205f828254610dda91906112ec565b925050819055507f1f1097374b196396d043cb547ad15553dde63e0f746eba010ef8065be3ec8f058383604051610e12929190611a39565b60405180910390a1505050565b5f604051905090565b5f80fd5b5f80fd5b5f73ffffffffffffffffffffffffffffffffffffffff82169050919050565b5f610e5982610e30565b9050919050565b610e6981610e4f565b8114610e73575f80fd5b50565b5f81359050610e8481610e60565b92915050565b5f60208284031215610e9f57610e9e610e28565b5b5f610eac84828501610e76565b91505092915050565b5f819050919050565b610ec781610eb5565b82525050565b5f602082019050610ee05f830184610ebe565b92915050565b610eef81610eb5565b8114610ef9575f80fd5b50565b5f81359050610f0a81610ee6565b92915050565b5f60208284031215610f2557610f24610e28565b5b5f610f3284828501610efc565b91505092915050565b5f80fd5b5f80fd5b5f601f19601f8301169050919050565b7f4e487b71000000000000000000000000000000000000000000000000000000005f52604160045260245ffd5b610f8982610f43565b810181811067ffffffffffffffff82111715610fa857610fa7610f53565b5b80604052505050565b5f610fba610e1f565b9050610fc68282610f80565b919050565b5f67ffffffffffffffff821115610fe557610fe4610f53565b5b610fee82610f43565b9050602081019050919050565b828183375f83830152505050565b5f61101b61101684610fcb565b610fb1565b90508281526020810184848401111561103757611036610f3f565b5b611042848285610ffb565b509392505050565b5f82601f83011261105e5761105d610f3b565b5b813561106e848260208601611009565b91505092915050565b5f805f6060848603121561108e5761108d610e28565b5b5f84013567ffffffffffffffff8111156110ab576110aa610e2c565b5b6110b78682870161104a565b93505060206110c886828701610efc565b92505060406110d986828701610efc565b9150509250925092565b5f6110ed82610e30565b9050919050565b6110fd816110e3565b82525050565b5f81519050919050565b5f82825260208201905092915050565b5f5b8381101561113a57808201518184015260208101905061111f565b5f8484015250505050565b5f61114f82611103565b611159818561110d565b935061116981856020860161111d565b61117281610f43565b840191505092915050565b5f8115159050919050565b6111918161117d565b82525050565b5f60c0820190506111aa5f830189610ebe565b6111b760208301886110f4565b81810360408301526111c98187611145565b90506111d86060830186610ebe565b6111e56080830185610ebe565b6111f260a0830184611188565b979650505050505050565b5f806040838503121561121357611212610e28565b5b5f61122085828601610efc565b925050602083013567ffffffffffffffff81111561124157611240610e2c565b5b61124d8582860161104a565b9150509250929050565b7f496e73756666696369656e7420657363726f7765642066756e647300000000005f82015250565b5f61128b601b8361110d565b915061129682611257565b602082019050919050565b5f6020820190508181035f8301526112b88161127f565b9050919050565b7f4e487b71000000000000000000000000000000000000000000000000000000005f52601160045260245ffd5b5f6112f682610eb5565b915061130183610eb5565b9250828203905081811115611319576113186112bf565b5b92915050565b61132881610e4f565b82525050565b5f819050919050565b5f61135161134c61134784610e30565b61132e565b610e30565b9050919050565b5f61136282611337565b9050919050565b5f61137382611358565b9050919050565b61138381611369565b82525050565b5f60808201905061139c5f830187610ebe565b6113a9602083018661131f565b6113b6604083018561137a565b6113c36060830184610ebe565b95945050505050565b7f50726f6475637420646f6573206e6f74206578697374000000000000000000005f82015250565b5f61140060168361110d565b915061140b826113cc565b602082019050919050565b5f6020820190508181035f83015261142d816113f4565b9050919050565b7f50726f6475637420616c726561647920736f6c640000000000000000000000005f82015250565b5f61146860148361110d565b915061147382611434565b602082019050919050565b5f6020820190508181035f8301526114958161145c565b9050919050565b7f42757965722063616e6e6f74206265207468652073656c6c65720000000000005f82015250565b5f6114d0601a8361110d565b91506114db8261149c565b602082019050919050565b5f6020820190508181035f8301526114fd816114c4565b9050919050565b7f53656e642065786163742070726f6475637420707269636500000000000000005f82015250565b5f61153860188361110d565b915061154382611504565b602082019050919050565b5f6020820190508181035f8301526115658161152c565b9050919050565b5f61157682610eb5565b915061158183610eb5565b9250828201905080821115611599576115986112bf565b5b92915050565b5f6060820190506115b25f830186610ebe565b6115bf602083018561131f565b6115cc6040830184610ebe565b949350505050565b7f4465706f736974206d75737420626520686967686572207468616e20707269635f8201527f6500000000000000000000000000000000000000000000000000000000000000602082015250565b5f61162e60218361110d565b9150611639826115d4565b604082019050919050565b5f6020820190508181035f83015261165b81611622565b9050919050565b5f61166c82610eb5565b91507fffffffffffffffffffffffffffffffffffffffffffffffffffffffffffffffff820361169e5761169d6112bf565b5b600182019050919050565b7f4e487b71000000000000000000000000000000000000000000000000000000005f52602260045260245ffd5b5f60028204905060018216806116ed57607f821691505b602082108103611700576116ff6116a9565b5b50919050565b5f819050815f5260205f209050919050565b5f6020601f8301049050919050565b5f82821b905092915050565b5f600883026117627fffffffffffffffffffffffffffffffffffffffffffffffffffffffffffffffff82611727565b61176c8683611727565b95508019841693508086168417925050509392505050565b5f61179e61179961179484610eb5565b61132e565b610eb5565b9050919050565b5f819050919050565b6117b783611784565b6117cb6117c3826117a5565b848454611733565b825550505050565b5f90565b6117df6117d3565b6117ea8184846117ae565b505050565b5b8181101561180d576118025f826117d7565b6001810190506117f0565b5050565b601f8211156118525761182381611706565b61182c84611718565b8101602085101561183b578190505b61184f61184785611718565b8301826117ef565b50505b505050565b5f82821c905092915050565b5f6118725f1984600802611857565b1980831691505092915050565b5f61188a8383611863565b9150826002028217905092915050565b6118a382611103565b67ffffffffffffffff8111156118bc576118bb610f53565b5b6118c682546116d6565b6118d1828285611811565b5f60209050601f831160018114611902575f84156118f0578287015190505b6118fa858261187f565b865550611961565b601f19841661191086611706565b5f5b8281101561193757848901518255600182019150602085019450602081019050611912565b868310156119545784890151611950601f891682611863565b8355505b6001600288020188555050505b505050505050565b7f4e6f207374616b65642062616c616e636520746f2077697468647261770000005f82015250565b5f61199d601d8361110d565b91506119a882611969565b602082019050919050565b5f6020820190508181035f8301526119ca81611991565b9050919050565b7f496e73756666696369656e742066756e647320746f20726566756e64000000005f82015250565b5f611a05601c8361110d565b9150611a10826119d1565b602082019050919050565b5f6020820190508181035f830152611a32816119f9565b9050919050565b5f604082019050611a4c5f830185610ebe565b8181036020830152611a5e8184611145565b9050939250505056fea2646970667358221220b132f2481d29438fdc581f0b671b36b6b49e2c414ba6cd1973e885d9b03d30fa64736f6c63430008150033",
  "immutableReferences": {},
  "source": "// SPDX-License-Identifier: GPL-3.0\n// pragma solidity >=0.4.0 <0.9.0;\npragma solidity ^0.8.0;\n\ncontract SecureSwap {\n    struct Product {\n        uint id;\n        address payable seller;\n        string description;\n        uint price;\n\n        /* \n         * This is a security deposit from the seller, which must be higher than the product's price. \n         * This deposit acts as a form of collateral to ensure the seller's commitment to the transaction. \n         */\n        uint sellerDeposit; \n        bool isSold;\n    }\n\n    uint public productCount = 0;\n    mapping(uint => Product) public products;\n\n    mapping(address => uint) public balances;\n\n    mapping(address => uint) public stakedBalances;\n\n    /*\n     * This event is emitted when a new product is listed in the marketplace.\n     * uint id: The unique identifier of the listed product.\n     * address seller: The Ethereum address of the seller who listed the product.\n     * uint price: The price of the product being listed.\n     */\n    event ProductListed(uint id, address seller, uint price);\n\n    /*\n     * This event is emitted when a product is purchased by a buyer.\n     * uint id: The identifier of the product that has been purchased.\n     * address buyer: The Ethereum address of the buyer who purchased the product.\n     * uint price: The price at which the product was purchased.\n     */\n    event ProductPurchased(uint id, address buyer, uint price);\n\n\n     // Event emitted when a transaction is agreed upon\n    event TransactionAgreed(uint productId, address buyer, address seller, uint price);\n\n     /*\n      * This event is Emitted when a transaction is approved, indicating that both parties have agreed and the funds can be transferred to the seller.\n      * uint id: The product identifier for which the transaction has been approved.\n      * address buyer: The buyer's Ethereum address.\n      * address seller: The seller's Ethereum address.\n      * uint price: The agreed transaction price.\n      */\n    event TransactionApproved(uint id, address buyer, address seller, uint price);\n\n    /*\n     * This event is emitted in the case of a dispute over a transaction.\n     * uint id: The identifier of the disputed product.\n     * string reason: A textual description providing the reason for the dispute.\n     */\n    event TransactionDisputed(uint id, string reason);\n\n    // /*\n    //  * Function to list a new product\n    //  * String memory _description: This is a temperory memory storage between transaction\n    //  * uint _price: The price that the item is list for\n    //  * uint _sellerDesposit: The collatoral payment the seller need to put down\n    //  */\n    function listProduct(string memory _description, uint _price, uint _sellerDeposit) public {\n        require(_sellerDeposit > _price, \"Deposit must be higher than price\");\n        productCount++;\n        //This specifies where the new product will be stored in the market \n        products[productCount] = Product(productCount, payable(msg.sender), _description, _price, _sellerDeposit, false);\n        //Notify people if the product is on the chain\n        emit ProductListed(productCount, msg.sender, _price);\n    }\n\n\n    // make a registerasseller function\n    // list product on chain ^^\n    // one seller + one many buyers test, 2 products\n    // dispute contract on chain\n\n  // Function for buyers to agree to a transaction\n  function agreeToTransaction(uint _productId) public payable {\n      Product storage product = products[_productId];\n      require(product.seller != address(0), \"Product does not exist\");\n      require(product.isSold == false, \"Product already sold\");\n      require(msg.sender != product.seller, \"Buyer cannot be the seller\");\n\n      // Transfer the product price from the buyer to the contract\n      require(msg.value == product.price, \"Send exact product price\");\n\n      // Staking the seller's deposit\n      stakedBalances[product.seller] += product.sellerDeposit;\n\n      // Mark the product as sold\n      product.isSold = true;\n\n      // Emit event indicating the transaction agreement\n      emit TransactionAgreed(_productId, msg.sender, product.seller, product.price);\n    }\n\n    // Function for sellers to withdraw their staked balance\n    function withdrawStake() public {\n        uint amount = stakedBalances[msg.sender];\n        require(amount > 0, \"No staked balance to withdraw\");\n\n        // Transfer staked balance to the seller\n        stakedBalances[msg.sender] = 0;\n        payable(msg.sender).transfer(amount);\n    }\n\n    /*\n     * Function for a buyer to purchase a product\n     * unit _productId: The identifier of the purchase product.\n     */\n    // function purchaseProduct(uint _productId) public payable {\n    //     //Find the item storeed in the marketplace\n    //     Product storage product = products[_productId];\n    //     require(msg.value == product.price, \"Send exact product price\");\n    //     require(product.isSold == false, \"Product already sold\");\n    //     product.isSold = true;\n    //     balances[product.seller] += msg.value;\n    //     emit ProductPurchased(_productId, msg.sender, product.price);\n    // }  \n\n\n    function purchaseProduct(uint _productId) public payable {\n      Product storage product = products[_productId];\n\n      require(msg.value == product.price, \"Send exact product price\");\n      require(product.isSold == false, \"Product already sold\");\n      product.isSold = true;\n      balances[product.seller] += msg.value;\n      emit ProductPurchased(_productId, msg.sender, product.price);\n    }\n\n    /*\n     * Function to approve the transaction and release funds to the seller\n     */\n    function approveTransaction(uint _productId) public {\n        Product storage product = products[_productId];\n        require(balances[product.seller] >= product.price, \"Insufficient escrowed funds\");\n        product.seller.transfer(product.price);\n        balances[product.seller] -= product.price;\n        emit TransactionApproved(_productId, msg.sender, product.seller, product.price);\n    }\n\n    /*\n     * Function to handle disputes and refund the buyer\n     */\n    function disputeTransaction(uint _productId, string memory _reason) public {\n        Product storage product = products[_productId];\n        require(balances[product.seller] >= product.price, \"Insufficient funds to refund\");\n        product.isSold = false;\n        payable(msg.sender).transfer(product.price);\n        balances[product.seller] -= product.price;\n        emit TransactionDisputed(_productId, _reason);\n    }\n\n}",
  "sourcePath": "/Users/aparna/Documents/GitHub/SecureSwap2/contracts/SecureSwap.sol",
  "compiler": {
    "name": "solc",
    "version": "0.8.21+commit.d9974bed.Emscripten.clang"
  },
  "schemaVersion": "3.4.16",
  "updatedAt": "2024-05-05T01:09:51.543Z",
  "devdoc": {
    "kind": "dev",
    "methods": {},
    "version": 1
  },
  "userdoc": {
    "kind": "user",
    "methods": {},
    "version": 1
  }
}