{
  "contractName": "SecureSwap",
  "abi": [
    {
      "anonymous": false,
      "inputs": [
        {
          "indexed": false,
          "internalType": "uint256",
          "name": "id",
          "type": "uint256"
        },
        {
          "indexed": false,
          "internalType": "address",
          "name": "seller",
          "type": "address"
        },
        {
          "indexed": false,
          "internalType": "uint256",
          "name": "price",
          "type": "uint256"
        }
      ],
      "name": "ProductListed",
      "type": "event"
    },
    {
      "anonymous": false,
      "inputs": [
        {
          "indexed": false,
          "internalType": "uint256",
          "name": "id",
          "type": "uint256"
        },
        {
          "indexed": false,
          "internalType": "address",
          "name": "buyer",
          "type": "address"
        },
        {
          "indexed": false,
          "internalType": "uint256",
          "name": "price",
          "type": "uint256"
        }
      ],
      "name": "ProductPurchased",
      "type": "event"
    },
    {
      "anonymous": false,
      "inputs": [
        {
          "indexed": false,
          "internalType": "uint256",
          "name": "productId",
          "type": "uint256"
        },
        {
          "indexed": false,
          "internalType": "address",
          "name": "buyer",
          "type": "address"
        },
        {
          "indexed": false,
          "internalType": "address",
          "name": "seller",
          "type": "address"
        },
        {
          "indexed": false,
          "internalType": "uint256",
          "name": "price",
          "type": "uint256"
        }
      ],
      "name": "TransactionAgreed",
      "type": "event"
    },
    {
      "anonymous": false,
      "inputs": [
        {
          "indexed": false,
          "internalType": "uint256",
          "name": "id",
          "type": "uint256"
        },
        {
          "indexed": false,
          "internalType": "address",
          "name": "buyer",
          "type": "address"
        },
        {
          "indexed": false,
          "internalType": "address",
          "name": "seller",
          "type": "address"
        },
        {
          "indexed": false,
          "internalType": "uint256",
          "name": "price",
          "type": "uint256"
        }
      ],
      "name": "TransactionApproved",
      "type": "event"
    },
    {
      "anonymous": false,
      "inputs": [
        {
          "indexed": false,
          "internalType": "uint256",
          "name": "id",
          "type": "uint256"
        },
        {
          "indexed": false,
          "internalType": "string",
          "name": "reason",
          "type": "string"
        }
      ],
      "name": "TransactionDisputed",
      "type": "event"
    },
    {
      "inputs": [
        {
          "internalType": "address",
          "name": "",
          "type": "address"
        }
      ],
      "name": "balances",
      "outputs": [
        {
          "internalType": "uint256",
          "name": "",
          "type": "uint256"
        }
      ],
      "stateMutability": "view",
      "type": "function"
    },
    {
      "inputs": [],
      "name": "productCount",
      "outputs": [
        {
          "internalType": "uint256",
          "name": "",
          "type": "uint256"
        }
      ],
      "stateMutability": "view",
      "type": "function"
    },
    {
      "inputs": [
        {
          "internalType": "uint256",
          "name": "",
          "type": "uint256"
        }
      ],
      "name": "products",
      "outputs": [
        {
          "internalType": "uint256",
          "name": "id",
          "type": "uint256"
        },
        {
          "internalType": "address payable",
          "name": "seller",
          "type": "address"
        },
        {
          "internalType": "string",
          "name": "description",
          "type": "string"
        },
        {
          "internalType": "uint256",
          "name": "price",
          "type": "uint256"
        },
        {
          "internalType": "uint256",
          "name": "sellerDeposit",
          "type": "uint256"
        },
        {
          "internalType": "bool",
          "name": "isSold",
          "type": "bool"
        }
      ],
      "stateMutability": "view",
      "type": "function"
    },
    {
      "inputs": [
        {
          "internalType": "address",
          "name": "",
          "type": "address"
        }
      ],
      "name": "stakedBalances",
      "outputs": [
        {
          "internalType": "uint256",
          "name": "",
          "type": "uint256"
        }
      ],
      "stateMutability": "view",
      "type": "function"
    },
    {
      "inputs": [
        {
          "internalType": "string",
          "name": "_description",
          "type": "string"
        },
        {
          "internalType": "uint256",
          "name": "_price",
          "type": "uint256"
        },
        {
          "internalType": "uint256",
          "name": "_sellerDeposit",
          "type": "uint256"
        }
      ],
      "name": "listProduct",
      "outputs": [],
      "stateMutability": "nonpayable",
      "type": "function"
    },
    {
      "inputs": [
        {
          "internalType": "uint256",
          "name": "_productId",
          "type": "uint256"
        }
      ],
      "name": "agreeToTransaction",
      "outputs": [],
      "stateMutability": "payable",
      "type": "function"
    },
    {
      "inputs": [],
      "name": "withdrawStake",
      "outputs": [],
      "stateMutability": "nonpayable",
      "type": "function"
    },
    {
      "inputs": [
        {
          "internalType": "uint256",
          "name": "_productId",
          "type": "uint256"
        }
      ],
      "name": "purchaseProduct",
      "outputs": [],
      "stateMutability": "payable",
      "type": "function"
    },
    {
      "inputs": [
        {
          "internalType": "uint256",
          "name": "_productId",
          "type": "uint256"
        }
      ],
      "name": "approveTransaction",
      "outputs": [],
      "stateMutability": "nonpayable",
      "type": "function"
    },
    {
      "inputs": [
        {
          "internalType": "uint256",
          "name": "_productId",
          "type": "uint256"
        },
        {
          "internalType": "string",
          "name": "_reason",
          "type": "string"
        }
      ],
      "name": "disputeTransaction",
      "outputs": [],
      "stateMutability": "nonpayable",
      "type": "function"
    }
  ],
  "bytecode": "0x60806040526000805534801561001457600080fd5b50611809806100246000396000f3fe6080604052600436106100915760003560e01c8063522927081161005957806352292708146101715780637acc0b201461019a578063bed9d861146101dc578063e0f6ef87146101f3578063e58d5bdd1461021e57610091565b80631460fa8714610096578063242232d1146100d357806327e235e3146100fc5780632b2920091461013957806338e76a0314610155575b600080fd5b3480156100a257600080fd5b506100bd60048036038101906100b89190610f2d565b610247565b6040516100ca9190611384565b60405180910390f35b3480156100df57600080fd5b506100fa60048036038101906100f59190610fbd565b61025f565b005b34801561010857600080fd5b50610123600480360381019061011e9190610f2d565b610476565b6040516101309190611384565b60405180910390f35b610153600480360381019061014e9190610fbd565b61048e565b005b61016f600480360381019061016a9190610fbd565b6106db565b005b34801561017d57600080fd5b5061019860048036038101906101939190610f56565b61086a565b005b3480156101a657600080fd5b506101c160048036038101906101bc9190610fbd565b610a06565b6040516101d39695949392919061139f565b60405180910390f35b3480156101e857600080fd5b506101f1610af7565b005b3480156101ff57600080fd5b50610208610c0d565b6040516102159190611384565b60405180910390f35b34801561022a57600080fd5b5061024560048036038101906102409190610fe6565b610c13565b005b60036020528060005260406000206000915090505481565b60006001600083815260200190815260200160002090508060030154600260008360010160009054906101000a900473ffffffffffffffffffffffffffffffffffffffff1673ffffffffffffffffffffffffffffffffffffffff1673ffffffffffffffffffffffffffffffffffffffff168152602001908152602001600020541015610320576040517f08c379a000000000000000000000000000000000000000000000000000000000815260040161031790611344565b60405180910390fd5b8060010160009054906101000a900473ffffffffffffffffffffffffffffffffffffffff1673ffffffffffffffffffffffffffffffffffffffff166108fc82600301549081150290604051600060405180830381858888f1935050505015801561038e573d6000803e3d6000fd5b508060030154600260008360010160009054906101000a900473ffffffffffffffffffffffffffffffffffffffff1673ffffffffffffffffffffffffffffffffffffffff1673ffffffffffffffffffffffffffffffffffffffff16815260200190815260200160002060008282546104069190611586565b925050819055507fcd1a10b04bfe0c7b1703208d1e348166e0bf0f6165245ff0c08d53baa4cefa9c82338360010160009054906101000a900473ffffffffffffffffffffffffffffffffffffffff16846003015460405161046a9493929190611407565b60405180910390a15050565b60026020528060005260406000206000915090505481565b6000600160008381526020019081526020016000209050600073ffffffffffffffffffffffffffffffffffffffff168160010160009054906101000a900473ffffffffffffffffffffffffffffffffffffffff1673ffffffffffffffffffffffffffffffffffffffff161415610539576040517f08c379a0000000000000000000000000000000000000000000000000000000008152600401610530906112a4565b60405180910390fd5b600015158160050160009054906101000a900460ff16151514610591576040517f08c379a000000000000000000000000000000000000000000000000000000000815260040161058890611304565b60405180910390fd5b806003015434146105d7576040517f08c379a00000000000000000000000000000000000000000000000000000000081526004016105ce906112c4565b60405180910390fd5b8060040154600360008360010160009054906101000a900473ffffffffffffffffffffffffffffffffffffffff1673ffffffffffffffffffffffffffffffffffffffff1673ffffffffffffffffffffffffffffffffffffffff168152602001908152602001600020600082825461064e9190611530565b9250508190555060018160050160006101000a81548160ff0219169083151502179055507f4bf00ee925332041f087b96985ea1864cec633aa7b0b4ee8bd5f530ed41b7f8a82338360010160009054906101000a900473ffffffffffffffffffffffffffffffffffffffff1684600301546040516106cf9493929190611407565b60405180910390a15050565b600060016000838152602001908152602001600020905080600301543414610738576040517f08c379a000000000000000000000000000000000000000000000000000000000815260040161072f906112c4565b60405180910390fd5b600015158160050160009054906101000a900460ff16151514610790576040517f08c379a000000000000000000000000000000000000000000000000000000000815260040161078790611304565b60405180910390fd5b60018160050160006101000a81548160ff02191690831515021790555034600260008360010160009054906101000a900473ffffffffffffffffffffffffffffffffffffffff1673ffffffffffffffffffffffffffffffffffffffff1673ffffffffffffffffffffffffffffffffffffffff16815260200190815260200160002060008282546108209190611530565b925050819055507fa530f889d7f1bd9a73028e48944ca013ab2c6624a31e3fa26f923f4bb719abd58233836003015460405161085e9392919061144c565b60405180910390a15050565b8181116108ac576040517f08c379a00000000000000000000000000000000000000000000000000000000081526004016108a390611364565b60405180910390fd5b6000808154809291906108be906116be565b91905055506040518060c0016040528060005481526020013373ffffffffffffffffffffffffffffffffffffffff1681526020018481526020018381526020018281526020016000151581525060016000805481526020019081526020016000206000820151816000015560208201518160010160006101000a81548173ffffffffffffffffffffffffffffffffffffffff021916908373ffffffffffffffffffffffffffffffffffffffff160217905550604082015181600201908051906020019061098c929190610df8565b50606082015181600301556080820151816004015560a08201518160050160006101000a81548160ff0219169083151502179055509050507faae25b31116c34c03f0dc58472ff47d3ea0e38a572ec53c9e66319b994717ddb60005433846040516109f99392919061144c565b60405180910390a1505050565b60016020528060005260406000206000915090508060000154908060010160009054906101000a900473ffffffffffffffffffffffffffffffffffffffff1690806002018054610a559061168c565b80601f0160208091040260200160405190810160405280929190818152602001828054610a819061168c565b8015610ace5780601f10610aa357610100808354040283529160200191610ace565b820191906000526020600020905b815481529060010190602001808311610ab157829003601f168201915b5050505050908060030154908060040154908060050160009054906101000a900460ff16905086565b6000600360003373ffffffffffffffffffffffffffffffffffffffff1673ffffffffffffffffffffffffffffffffffffffff16815260200190815260200160002054905060008111610b7e576040517f08c379a0000000000000000000000000000000000000000000000000000000008152600401610b7590611324565b60405180910390fd5b6000600360003373ffffffffffffffffffffffffffffffffffffffff1673ffffffffffffffffffffffffffffffffffffffff168152602001908152602001600020819055503373ffffffffffffffffffffffffffffffffffffffff166108fc829081150290604051600060405180830381858888f19350505050158015610c09573d6000803e3d6000fd5b5050565b60005481565b60006001600084815260200190815260200160002090508060030154600260008360010160009054906101000a900473ffffffffffffffffffffffffffffffffffffffff1673ffffffffffffffffffffffffffffffffffffffff1673ffffffffffffffffffffffffffffffffffffffff168152602001908152602001600020541015610cd4576040517f08c379a0000000000000000000000000000000000000000000000000000000008152600401610ccb906112e4565b60405180910390fd5b60008160050160006101000a81548160ff0219169083151502179055503373ffffffffffffffffffffffffffffffffffffffff166108fc82600301549081150290604051600060405180830381858888f19350505050158015610d3b573d6000803e3d6000fd5b508060030154600260008360010160009054906101000a900473ffffffffffffffffffffffffffffffffffffffff1673ffffffffffffffffffffffffffffffffffffffff1673ffffffffffffffffffffffffffffffffffffffff1681526020019081526020016000206000828254610db39190611586565b925050819055507f1f1097374b196396d043cb547ad15553dde63e0f746eba010ef8065be3ec8f058383604051610deb929190611483565b60405180910390a1505050565b828054610e049061168c565b90600052602060002090601f016020900481019282610e265760008555610e6d565b82601f10610e3f57805160ff1916838001178555610e6d565b82800160010185558215610e6d579182015b82811115610e6c578251825591602001919060010190610e51565b5b509050610e7a9190610e7e565b5090565b5b80821115610e97576000816000905550600101610e7f565b5090565b6000610eae610ea9846114e4565b6114b3565b905082815260208101848484011115610ec657600080fd5b610ed184828561164a565b509392505050565b600081359050610ee8816117a5565b92915050565b600082601f830112610eff57600080fd5b8135610f0f848260208601610e9b565b91505092915050565b600081359050610f27816117bc565b92915050565b600060208284031215610f3f57600080fd5b6000610f4d84828501610ed9565b91505092915050565b600080600060608486031215610f6b57600080fd5b600084013567ffffffffffffffff811115610f8557600080fd5b610f9186828701610eee565b9350506020610fa286828701610f18565b9250506040610fb386828701610f18565b9150509250925092565b600060208284031215610fcf57600080fd5b6000610fdd84828501610f18565b91505092915050565b60008060408385031215610ff957600080fd5b600061100785828601610f18565b925050602083013567ffffffffffffffff81111561102457600080fd5b61103085828601610eee565b9150509250929050565b61104381611614565b82525050565b611052816115cc565b82525050565b611061816115ba565b82525050565b611070816115de565b82525050565b600061108182611514565b61108b818561151f565b935061109b818560208601611659565b6110a481611794565b840191505092915050565b60006110bc60168361151f565b91507f50726f6475637420646f6573206e6f74206578697374000000000000000000006000830152602082019050919050565b60006110fc60188361151f565b91507f53656e642065786163742070726f6475637420707269636500000000000000006000830152602082019050919050565b600061113c601c8361151f565b91507f496e73756666696369656e742066756e647320746f20726566756e64000000006000830152602082019050919050565b600061117c60148361151f565b91507f50726f6475637420616c726561647920736f6c640000000000000000000000006000830152602082019050919050565b60006111bc601d8361151f565b91507f4e6f207374616b65642062616c616e636520746f2077697468647261770000006000830152602082019050919050565b60006111fc601b8361151f565b91507f496e73756666696369656e7420657363726f7765642066756e647300000000006000830152602082019050919050565b600061123c60218361151f565b91507f4465706f736974206d75737420626520686967686572207468616e207072696360008301527f65000000000000000000000000000000000000000000000000000000000000006020830152604082019050919050565b61129e8161160a565b82525050565b600060208201905081810360008301526112bd816110af565b9050919050565b600060208201905081810360008301526112dd816110ef565b9050919050565b600060208201905081810360008301526112fd8161112f565b9050919050565b6000602082019050818103600083015261131d8161116f565b9050919050565b6000602082019050818103600083015261133d816111af565b9050919050565b6000602082019050818103600083015261135d816111ef565b9050919050565b6000602082019050818103600083015261137d8161122f565b9050919050565b60006020820190506113996000830184611295565b92915050565b600060c0820190506113b46000830189611295565b6113c16020830188611049565b81810360408301526113d38187611076565b90506113e26060830186611295565b6113ef6080830185611295565b6113fc60a0830184611067565b979650505050505050565b600060808201905061141c6000830187611295565b6114296020830186611058565b611436604083018561103a565b6114436060830184611295565b95945050505050565b60006060820190506114616000830186611295565b61146e6020830185611058565b61147b6040830184611295565b949350505050565b60006040820190506114986000830185611295565b81810360208301526114aa8184611076565b90509392505050565b6000604051905081810181811067ffffffffffffffff821117156114da576114d9611765565b5b8060405250919050565b600067ffffffffffffffff8211156114ff576114fe611765565b5b601f19601f8301169050602081019050919050565b600081519050919050565b600082825260208201905092915050565b600061153b8261160a565b91506115468361160a565b9250827fffffffffffffffffffffffffffffffffffffffffffffffffffffffffffffffff0382111561157b5761157a611707565b5b828201905092915050565b60006115918261160a565b915061159c8361160a565b9250828210156115af576115ae611707565b5b828203905092915050565b60006115c5826115ea565b9050919050565b60006115d7826115ea565b9050919050565b60008115159050919050565b600073ffffffffffffffffffffffffffffffffffffffff82169050919050565b6000819050919050565b600061161f82611626565b9050919050565b600061163182611638565b9050919050565b6000611643826115ea565b9050919050565b82818337600083830152505050565b60005b8381101561167757808201518184015260208101905061165c565b83811115611686576000848401525b50505050565b600060028204905060018216806116a457607f821691505b602082108114156116b8576116b7611736565b5b50919050565b60006116c98261160a565b91507fffffffffffffffffffffffffffffffffffffffffffffffffffffffffffffffff8214156116fc576116fb611707565b5b600182019050919050565b7f4e487b7100000000000000000000000000000000000000000000000000000000600052601160045260246000fd5b7f4e487b7100000000000000000000000000000000000000000000000000000000600052602260045260246000fd5b7f4e487b7100000000000000000000000000000000000000000000000000000000600052604160045260246000fd5b6000601f19601f8301169050919050565b6117ae816115ba565b81146117b957600080fd5b50565b6117c58161160a565b81146117d057600080fd5b5056fea26469706673582212205b9d8723ba17b8c4c7924e1bb8857655575d2591ff3f6b42ac37ce361ff76c6564736f6c63430008000033",
  "immutableReferences": {},
  "source": "//SPDX-License-Identifier: GPL - 3.0\n\npragma solidity ^0.8.0;\n\ncontract SecureSwap {\n    struct Product {\n        uint id;\n        address payable seller;\n        string description;\n        uint price;\n\n        /* \n         * This is a security deposit from the seller, which must be higher than the product's price. \n         * This deposit acts as a form of collateral to ensure the seller's commitment to the transaction. \n         */\n        uint sellerDeposit; \n        bool isSold;\n    }\n\n    uint public productCount = 0;\n    mapping(uint => Product) public products;\n\n    mapping(address => uint) public balances;\n\n    mapping(address => uint) public stakedBalances;\n\n    /*\n     * This event is emitted when a new product is listed in the marketplace.\n     * uint id: The unique identifier of the listed product.\n     * address seller: The Ethereum address of the seller who listed the product.\n     * uint price: The price of the product being listed.\n     */\n    event ProductListed(uint id, address seller, uint price);\n\n    /*\n     * This event is emitted when a product is purchased by a buyer.\n     * uint id: The identifier of the product that has been purchased.\n     * address buyer: The Ethereum address of the buyer who purchased the product.\n     * uint price: The price at which the product was purchased.\n     */\n    event ProductPurchased(uint id, address buyer, uint price);\n\n\n     // Event emitted when a transaction is agreed upon\n    event TransactionAgreed(uint productId, address buyer, address seller, uint price);\n\n     /*\n      * This event is Emitted when a transaction is approved, indicating that both parties have agreed and the funds can be transferred to the seller.\n      * uint id: The product identifier for which the transaction has been approved.\n      * address buyer: The buyer's Ethereum address.\n      * address seller: The seller's Ethereum address.\n      * uint price: The agreed transaction price.\n      */\n    event TransactionApproved(uint id, address buyer, address seller, uint price);\n\n    /*\n     * This event is emitted in the case of a dispute over a transaction.\n     * uint id: The identifier of the disputed product.\n     * string reason: A textual description providing the reason for the dispute.\n     */\n    event TransactionDisputed(uint id, string reason);\n\n    // /*\n    //  * Function to list a new product\n    //  * String memory _description: This is a temperory memory storage between transaction\n    //  * uint _price: The price that the item is list for\n    //  * uint _sellerDesposit: The collatoral payment the seller need to put down\n    //  */\n    function listProduct(string memory _description, uint _price, uint _sellerDeposit) public {\n        require(_sellerDeposit > _price, \"Deposit must be higher than price\");\n        productCount++;\n        //This specifies where the new product will be stored in the market \n        products[productCount] = Product(productCount, payable(msg.sender), _description, _price, _sellerDeposit, false);\n        //Notify people if the product is on the chain\n        emit ProductListed(productCount, msg.sender, _price);\n    }\n\n\n    // make a registerasseller function\n    // list product on chain ^^\n    // one seller + one many buyers test, 2 products\n    // dispute contract on chain\n\n  // Function for buyers to agree to a transaction\n  function agreeToTransaction(uint _productId) public payable {\n      Product storage product = products[_productId];\n      require(product.seller != address(0), \"Product does not exist\");\n      require(product.isSold == false, \"Product already sold\");\n      //require(msg.sender != product.seller, \"Buyer cannot be the seller\");\n\n      // Transfer the product price from the buyer to the contract\n      require(msg.value == product.price, \"Send exact product price\");\n\n      // Staking the seller's deposit\n      stakedBalances[product.seller] += product.sellerDeposit;\n\n      // Mark the product as sold\n      product.isSold = true;\n\n      // Emit event indicating the transaction agreement\n      emit TransactionAgreed(_productId, msg.sender, product.seller, product.price);\n    }\n\n    // Function for sellers to withdraw their staked balance\n    function withdrawStake() public {\n        uint amount = stakedBalances[msg.sender];\n        require(amount > 0, \"No staked balance to withdraw\");\n\n        // Transfer staked balance to the seller\n        stakedBalances[msg.sender] = 0;\n        payable(msg.sender).transfer(amount);\n    }\n\n    /*\n     * Function for a buyer to purchase a product\n     * unit _productId: The identifier of the purchase product.\n     */\n    // function purchaseProduct(uint _productId) public payable {\n    //     //Find the item storeed in the marketplace\n    //     Product storage product = products[_productId];\n    //     require(msg.value == product.price, \"Send exact product price\");\n    //     require(product.isSold == false, \"Product already sold\");\n    //     product.isSold = true;\n    //     balances[product.seller] += msg.value;\n    //     emit ProductPurchased(_productId, msg.sender, product.price);\n    // }  \n\n\n    function purchaseProduct(uint _productId) public payable {\n      Product storage product = products[_productId];\n\n      require(msg.value == product.price, \"Send exact product price\");\n      require(product.isSold == false, \"Product already sold\");\n      product.isSold = true;\n      balances[product.seller] += msg.value;\n      emit ProductPurchased(_productId, msg.sender, product.price);\n    }\n\n    /*\n     * Function to approve the transaction and release funds to the seller\n     */\n    function approveTransaction(uint _productId) public {\n        Product storage product = products[_productId];\n        require(balances[product.seller] >= product.price, \"Insufficient escrowed funds\");\n        product.seller.transfer(product.price);\n        balances[product.seller] -= product.price;\n        emit TransactionApproved(_productId, msg.sender, product.seller, product.price);\n    }\n\n    /*\n     * Function to handle disputes and refund the buyer\n     */\n    function disputeTransaction(uint _productId, string memory _reason) public {\n        Product storage product = products[_productId];\n        require(balances[product.seller] >= product.price, \"Insufficient funds to refund\");\n        product.isSold = false;\n        payable(msg.sender).transfer(product.price);\n        balances[product.seller] -= product.price;\n        emit TransactionDisputed(_productId, _reason);\n    }\n\n}",
  "sourcePath": "/home/mmiah00/CS595/SecureSwap2/contracts/SecureSwap.sol",
  "compiler": {
    "name": "solc",
    "version": "0.8.0+commit.c7dfd78e.Emscripten.clang"
  },
  "schemaVersion": "3.4.16",
  "updatedAt": "2024-05-08T02:26:13.210Z",
  "devdoc": {
    "kind": "dev",
    "methods": {},
    "version": 1
  },
  "userdoc": {
    "kind": "user",
    "methods": {},
    "version": 1
  }
}